:020000000C945E
:100002002A000C9445000C9400000C9400000C94FF
:1000120000000C9400000C9400000C9400000C945E
:1000220000000C9400000C9400000C9400000C944E
:1000320000000C9400000C9400000C9400000C943E
:1000420000000C9400000C9400000C9400000C942E
:100052000000F894EE27ECBBF1E0FBBFEBBFE5BF7D
:100062008DE0A2E0BB27ED938A95E9F780E094E06A
:10007200A0E6ED930197E9F7EFE5EDBFE4E0EEBF0F
:10008200C0E6D1E00C94CD000A921A92FA926A93D9
:100092007A938A939A93AA93BA93EA93FA93EFB7CD
:1000A200EA93839B02C077245524770C5394E0E0B3
:1000B2008499E1E07E2AE5E0E51509F4472CE6E0C3
:1000C200E51541F4E42DF0E0FA93EA93A0E0849977
:1000D200A1E00ED0E991EFBFF991E991B991A9910F
:1000E2009991899179916991F9901990099018954E
:1000F200AA93A981BA81109719F4A881A03009F0B6
:1001020003C0E0E0E5BB9798A981BA81119731F469
:10011200E881E03011F4979801C0979AA981BA81D9
:10012200129731F4E881E03011F4A89801C0A89A3E
:10013200A981BA81139731F4E881E03011F4A998CA
:1001420001C0A99AA981BA81149731F4E881E030FB
:1001520011F4AA9801C0AA9AA981BA81159731F41B
:10016200E881E03011F4AB9801C0AB9AA981BA8161
:10017200169731F4E881E03011F4AC9801C0AC9AE2
:10018200A981BA81179731F4E881E03011F4AD9872
:1001920001C0AD9A23960895E0E0EABBEBBBE7BB52
:1001A200E8BBEFEFE4BBE0E0E5BBE0E8E1BBE0E0A9
:1001B200E2BBE3BFE2BFECBFEFBDEEBDEDBDECBD08
:1001C200E7BDE6BDEBBDEABDE9BDE8BDE2BDE5BD0B
:1001D200E4BDE3BDE9BFEBB7E064EBBFE3E0E5BF3D
:1001E200E0E0E4BFE0E4EABFE0E0EAB9E0E8E8B971
:1001F200E0E0E0BFE6B9EDB9E6BF7894FFCFFFCF0C
:00000001FF
